{
  "_format": "hh-sol-artifact-1",
  "contractName": "MockUSDC",
  "sourceName": "contracts/mocks/MockUSDC.sol",
  "abi": [
    {
      "inputs": [
        {
          "internalType": "uint256",
          "name": "initialSupply",
          "type": "uint256"
        }
      ],
      "stateMutability": "nonpayable",
      "type": "constructor"
    },
    {
      "inputs": [
        {
          "internalType": "address",
          "name": "spender",
          "type": "address"
        },
        {
          "internalType": "uint256",
          "name": "allowance",
          "type": "uint256"
        },
        {
          "internalType": "uint256",
          "name": "needed",
          "type": "uint256"
        }
      ],
      "name": "ERC20InsufficientAllowance",
      "type": "error"
    },
    {
      "inputs": [
        {
          "internalType": "address",
          "name": "sender",
          "type": "address"
        },
        {
          "internalType": "uint256",
          "name": "balance",
          "type": "uint256"
        },
        {
          "internalType": "uint256",
          "name": "needed",
          "type": "uint256"
        }
      ],
      "name": "ERC20InsufficientBalance",
      "type": "error"
    },
    {
      "inputs": [
        {
          "internalType": "address",
          "name": "approver",
          "type": "address"
        }
      ],
      "name": "ERC20InvalidApprover",
      "type": "error"
    },
    {
      "inputs": [
        {
          "internalType": "address",
          "name": "receiver",
          "type": "address"
        }
      ],
      "name": "ERC20InvalidReceiver",
      "type": "error"
    },
    {
      "inputs": [
        {
          "internalType": "address",
          "name": "sender",
          "type": "address"
        }
      ],
      "name": "ERC20InvalidSender",
      "type": "error"
    },
    {
      "inputs": [
        {
          "internalType": "address",
          "name": "spender",
          "type": "address"
        }
      ],
      "name": "ERC20InvalidSpender",
      "type": "error"
    },
    {
      "anonymous": false,
      "inputs": [
        {
          "indexed": true,
          "internalType": "address",
          "name": "owner",
          "type": "address"
        },
        {
          "indexed": true,
          "internalType": "address",
          "name": "spender",
          "type": "address"
        },
        {
          "indexed": false,
          "internalType": "uint256",
          "name": "value",
          "type": "uint256"
        }
      ],
      "name": "Approval",
      "type": "event"
    },
    {
      "anonymous": false,
      "inputs": [
        {
          "indexed": true,
          "internalType": "address",
          "name": "from",
          "type": "address"
        },
        {
          "indexed": true,
          "internalType": "address",
          "name": "to",
          "type": "address"
        },
        {
          "indexed": false,
          "internalType": "uint256",
          "name": "value",
          "type": "uint256"
        }
      ],
      "name": "Transfer",
      "type": "event"
    },
    {
      "inputs": [
        {
          "internalType": "address",
          "name": "owner",
          "type": "address"
        },
        {
          "internalType": "address",
          "name": "spender",
          "type": "address"
        }
      ],
      "name": "allowance",
      "outputs": [
        {
          "internalType": "uint256",
          "name": "",
          "type": "uint256"
        }
      ],
      "stateMutability": "view",
      "type": "function"
    },
    {
      "inputs": [
        {
          "internalType": "address",
          "name": "spender",
          "type": "address"
        },
        {
          "internalType": "uint256",
          "name": "value",
          "type": "uint256"
        }
      ],
      "name": "approve",
      "outputs": [
        {
          "internalType": "bool",
          "name": "",
          "type": "bool"
        }
      ],
      "stateMutability": "nonpayable",
      "type": "function"
    },
    {
      "inputs": [
        {
          "internalType": "address",
          "name": "account",
          "type": "address"
        }
      ],
      "name": "balanceOf",
      "outputs": [
        {
          "internalType": "uint256",
          "name": "",
          "type": "uint256"
        }
      ],
      "stateMutability": "view",
      "type": "function"
    },
    {
      "inputs": [],
      "name": "decimals",
      "outputs": [
        {
          "internalType": "uint8",
          "name": "",
          "type": "uint8"
        }
      ],
      "stateMutability": "view",
      "type": "function"
    },
    {
      "inputs": [],
      "name": "mint",
      "outputs": [],
      "stateMutability": "nonpayable",
      "type": "function"
    },
    {
      "inputs": [],
      "name": "name",
      "outputs": [
        {
          "internalType": "string",
          "name": "",
          "type": "string"
        }
      ],
      "stateMutability": "view",
      "type": "function"
    },
    {
      "inputs": [],
      "name": "symbol",
      "outputs": [
        {
          "internalType": "string",
          "name": "",
          "type": "string"
        }
      ],
      "stateMutability": "view",
      "type": "function"
    },
    {
      "inputs": [],
      "name": "totalSupply",
      "outputs": [
        {
          "internalType": "uint256",
          "name": "",
          "type": "uint256"
        }
      ],
      "stateMutability": "view",
      "type": "function"
    },
    {
      "inputs": [
        {
          "internalType": "address",
          "name": "to",
          "type": "address"
        },
        {
          "internalType": "uint256",
          "name": "value",
          "type": "uint256"
        }
      ],
      "name": "transfer",
      "outputs": [
        {
          "internalType": "bool",
          "name": "",
          "type": "bool"
        }
      ],
      "stateMutability": "nonpayable",
      "type": "function"
    },
    {
      "inputs": [
        {
          "internalType": "address",
          "name": "from",
          "type": "address"
        },
        {
          "internalType": "address",
          "name": "to",
          "type": "address"
        },
        {
          "internalType": "uint256",
          "name": "value",
          "type": "uint256"
        }
      ],
      "name": "transferFrom",
      "outputs": [
        {
          "internalType": "bool",
          "name": "",
          "type": "bool"
        }
      ],
      "stateMutability": "nonpayable",
      "type": "function"
    }
  ],
  "bytecode": "0x60806040523480156200001157600080fd5b5060405162001987380380620019878339818101604052810190620000379190620003df565b6040518060400160405280600481526020017f55534443000000000000000000000000000000000000000000000000000000008152506040518060400160405280600481526020017f55534443000000000000000000000000000000000000000000000000000000008152508160039081620000b4919062000681565b508060049081620000c6919062000681565b505050620000db3382620000e260201b60201c565b506200089f565b600073ffffffffffffffffffffffffffffffffffffffff168273ffffffffffffffffffffffffffffffffffffffff1603620001575760006040517fec442f050000000000000000000000000000000000000000000000000000000081526004016200014e9190620007ad565b60405180910390fd5b6200016b600083836200016f60201b60201c565b5050565b600073ffffffffffffffffffffffffffffffffffffffff168373ffffffffffffffffffffffffffffffffffffffff1603620001c5578060026000828254620001b89190620007f9565b925050819055506200029b565b60008060008573ffffffffffffffffffffffffffffffffffffffff1673ffffffffffffffffffffffffffffffffffffffff1681526020019081526020016000205490508181101562000254578381836040517fe450d38c0000000000000000000000000000000000000000000000000000000081526004016200024b9392919062000845565b60405180910390fd5b8181036000808673ffffffffffffffffffffffffffffffffffffffff1673ffffffffffffffffffffffffffffffffffffffff16815260200190815260200160002081905550505b600073ffffffffffffffffffffffffffffffffffffffff168273ffffffffffffffffffffffffffffffffffffffff1603620002e6578060026000828254039250508190555062000333565b806000808473ffffffffffffffffffffffffffffffffffffffff1673ffffffffffffffffffffffffffffffffffffffff168152602001908152602001600020600082825401925050819055505b8173ffffffffffffffffffffffffffffffffffffffff168373ffffffffffffffffffffffffffffffffffffffff167fddf252ad1be2c89b69c2b068fc378daa952ba7f163c4a11628f55a4df523b3ef8360405162000392919062000882565b60405180910390a3505050565b600080fd5b6000819050919050565b620003b981620003a4565b8114620003c557600080fd5b50565b600081519050620003d981620003ae565b92915050565b600060208284031215620003f857620003f76200039f565b5b60006200040884828501620003c8565b91505092915050565b600081519050919050565b7f4e487b7100000000000000000000000000000000000000000000000000000000600052604160045260246000fd5b7f4e487b7100000000000000000000000000000000000000000000000000000000600052602260045260246000fd5b600060028204905060018216806200049357607f821691505b602082108103620004a957620004a86200044b565b5b50919050565b60008190508160005260206000209050919050565b60006020601f8301049050919050565b600082821b905092915050565b600060088302620005137fffffffffffffffffffffffffffffffffffffffffffffffffffffffffffffffff82620004d4565b6200051f8683620004d4565b95508019841693508086168417925050509392505050565b6000819050919050565b6000620005626200055c6200055684620003a4565b62000537565b620003a4565b9050919050565b6000819050919050565b6200057e8362000541565b620005966200058d8262000569565b848454620004e1565b825550505050565b600090565b620005ad6200059e565b620005ba81848462000573565b505050565b5b81811015620005e257620005d6600082620005a3565b600181019050620005c0565b5050565b601f8211156200063157620005fb81620004af565b6200060684620004c4565b8101602085101562000616578190505b6200062e6200062585620004c4565b830182620005bf565b50505b505050565b600082821c905092915050565b6000620006566000198460080262000636565b1980831691505092915050565b600062000671838362000643565b9150826002028217905092915050565b6200068c8262000411565b67ffffffffffffffff811115620006a857620006a76200041c565b5b620006b482546200047a565b620006c1828285620005e6565b600060209050601f831160018114620006f95760008415620006e4578287015190505b620006f0858262000663565b86555062000760565b601f1984166200070986620004af565b60005b8281101562000733578489015182556001820191506020850194506020810190506200070c565b868310156200075357848901516200074f601f89168262000643565b8355505b6001600288020188555050505b505050505050565b600073ffffffffffffffffffffffffffffffffffffffff82169050919050565b6000620007958262000768565b9050919050565b620007a78162000788565b82525050565b6000602082019050620007c460008301846200079c565b92915050565b7f4e487b7100000000000000000000000000000000000000000000000000000000600052601160045260246000fd5b60006200080682620003a4565b91506200081383620003a4565b92508282019050808211156200082e576200082d620007ca565b5b92915050565b6200083f81620003a4565b82525050565b60006060820190506200085c60008301866200079c565b6200086b602083018562000834565b6200087a604083018462000834565b949350505050565b600060208201905062000899600083018462000834565b92915050565b6110d880620008af6000396000f3fe608060405234801561001057600080fd5b506004361061009e5760003560e01c8063313ce56711610066578063313ce5671461014957806370a082311461016757806395d89b4114610197578063a9059cbb146101b5578063dd62ed3e146101e55761009e565b806306fdde03146100a3578063095ea7b3146100c15780631249c58b146100f157806318160ddd146100fb57806323b872dd14610119575b600080fd5b6100ab610215565b6040516100b89190610b6c565b60405180910390f35b6100db60048036038101906100d69190610c27565b6102a7565b6040516100e89190610c82565b60405180910390f35b6100f96102ca565b005b6101036102f6565b6040516101109190610cac565b60405180910390f35b610133600480360381019061012e9190610cc7565b610300565b6040516101409190610c82565b60405180910390f35b61015161032f565b60405161015e9190610d36565b60405180910390f35b610181600480360381019061017c9190610d51565b610338565b60405161018e9190610cac565b60405180910390f35b61019f610380565b6040516101ac9190610b6c565b60405180910390f35b6101cf60048036038101906101ca9190610c27565b610412565b6040516101dc9190610c82565b60405180910390f35b6101ff60048036038101906101fa9190610d7e565b610435565b60405161020c9190610cac565b60405180910390f35b60606003805461022490610ded565b80601f016020809104026020016040519081016040528092919081815260200182805461025090610ded565b801561029d5780601f106102725761010080835404028352916020019161029d565b820191906000526020600020905b81548152906001019060200180831161028057829003601f168201915b5050505050905090565b6000806102b26104bc565b90506102bf8185856104c4565b600191505092915050565b6102f4336102d661032f565b600a6102e29190610f80565b6103e86102ef9190610fcb565b6104d6565b565b6000600254905090565b60008061030b6104bc565b9050610318858285610558565b6103238585856105ec565b60019150509392505050565b60006006905090565b60008060008373ffffffffffffffffffffffffffffffffffffffff1673ffffffffffffffffffffffffffffffffffffffff168152602001908152602001600020549050919050565b60606004805461038f90610ded565b80601f01602080910402602001604051908101604052809291908181526020018280546103bb90610ded565b80156104085780601f106103dd57610100808354040283529160200191610408565b820191906000526020600020905b8154815290600101906020018083116103eb57829003601f168201915b5050505050905090565b60008061041d6104bc565b905061042a8185856105ec565b600191505092915050565b6000600160008473ffffffffffffffffffffffffffffffffffffffff1673ffffffffffffffffffffffffffffffffffffffff16815260200190815260200160002060008373ffffffffffffffffffffffffffffffffffffffff1673ffffffffffffffffffffffffffffffffffffffff16815260200190815260200160002054905092915050565b600033905090565b6104d183838360016106e0565b505050565b600073ffffffffffffffffffffffffffffffffffffffff168273ffffffffffffffffffffffffffffffffffffffff16036105485760006040517fec442f0500000000000000000000000000000000000000000000000000000000815260040161053f919061101c565b60405180910390fd5b610554600083836108b7565b5050565b60006105648484610435565b90507fffffffffffffffffffffffffffffffffffffffffffffffffffffffffffffffff81146105e657818110156105d6578281836040517ffb8f41b20000000000000000000000000000000000000000000000000000000081526004016105cd93929190611037565b60405180910390fd5b6105e5848484840360006106e0565b5b50505050565b600073ffffffffffffffffffffffffffffffffffffffff168373ffffffffffffffffffffffffffffffffffffffff160361065e5760006040517f96c6fd1e000000000000000000000000000000000000000000000000000000008152600401610655919061101c565b60405180910390fd5b600073ffffffffffffffffffffffffffffffffffffffff168273ffffffffffffffffffffffffffffffffffffffff16036106d05760006040517fec442f050000000000000000000000000000000000000000000000000000000081526004016106c7919061101c565b60405180910390fd5b6106db8383836108b7565b505050565b600073ffffffffffffffffffffffffffffffffffffffff168473ffffffffffffffffffffffffffffffffffffffff16036107525760006040517fe602df05000000000000000000000000000000000000000000000000000000008152600401610749919061101c565b60405180910390fd5b600073ffffffffffffffffffffffffffffffffffffffff168373ffffffffffffffffffffffffffffffffffffffff16036107c45760006040517f94280d620000000000000000000000000000000000000000000000000000000081526004016107bb919061101c565b60405180910390fd5b81600160008673ffffffffffffffffffffffffffffffffffffffff1673ffffffffffffffffffffffffffffffffffffffff16815260200190815260200160002060008573ffffffffffffffffffffffffffffffffffffffff1673ffffffffffffffffffffffffffffffffffffffff1681526020019081526020016000208190555080156108b1578273ffffffffffffffffffffffffffffffffffffffff168473ffffffffffffffffffffffffffffffffffffffff167f8c5be1e5ebec7d5bd14f71427d1e84f3dd0314c0f7b2291e5b200ac8c7c3b925846040516108a89190610cac565b60405180910390a35b50505050565b600073ffffffffffffffffffffffffffffffffffffffff168373ffffffffffffffffffffffffffffffffffffffff16036109095780600260008282546108fd919061106e565b925050819055506109dc565b60008060008573ffffffffffffffffffffffffffffffffffffffff1673ffffffffffffffffffffffffffffffffffffffff16815260200190815260200160002054905081811015610995578381836040517fe450d38c00000000000000000000000000000000000000000000000000000000815260040161098c93929190611037565b60405180910390fd5b8181036000808673ffffffffffffffffffffffffffffffffffffffff1673ffffffffffffffffffffffffffffffffffffffff16815260200190815260200160002081905550505b600073ffffffffffffffffffffffffffffffffffffffff168273ffffffffffffffffffffffffffffffffffffffff1603610a255780600260008282540392505081905550610a72565b806000808473ffffffffffffffffffffffffffffffffffffffff1673ffffffffffffffffffffffffffffffffffffffff168152602001908152602001600020600082825401925050819055505b8173ffffffffffffffffffffffffffffffffffffffff168373ffffffffffffffffffffffffffffffffffffffff167fddf252ad1be2c89b69c2b068fc378daa952ba7f163c4a11628f55a4df523b3ef83604051610acf9190610cac565b60405180910390a3505050565b600081519050919050565b600082825260208201905092915050565b60005b83811015610b16578082015181840152602081019050610afb565b60008484015250505050565b6000601f19601f8301169050919050565b6000610b3e82610adc565b610b488185610ae7565b9350610b58818560208601610af8565b610b6181610b22565b840191505092915050565b60006020820190508181036000830152610b868184610b33565b905092915050565b600080fd5b600073ffffffffffffffffffffffffffffffffffffffff82169050919050565b6000610bbe82610b93565b9050919050565b610bce81610bb3565b8114610bd957600080fd5b50565b600081359050610beb81610bc5565b92915050565b6000819050919050565b610c0481610bf1565b8114610c0f57600080fd5b50565b600081359050610c2181610bfb565b92915050565b60008060408385031215610c3e57610c3d610b8e565b5b6000610c4c85828601610bdc565b9250506020610c5d85828601610c12565b9150509250929050565b60008115159050919050565b610c7c81610c67565b82525050565b6000602082019050610c976000830184610c73565b92915050565b610ca681610bf1565b82525050565b6000602082019050610cc16000830184610c9d565b92915050565b600080600060608486031215610ce057610cdf610b8e565b5b6000610cee86828701610bdc565b9350506020610cff86828701610bdc565b9250506040610d1086828701610c12565b9150509250925092565b600060ff82169050919050565b610d3081610d1a565b82525050565b6000602082019050610d4b6000830184610d27565b92915050565b600060208284031215610d6757610d66610b8e565b5b6000610d7584828501610bdc565b91505092915050565b60008060408385031215610d9557610d94610b8e565b5b6000610da385828601610bdc565b9250506020610db485828601610bdc565b9150509250929050565b7f4e487b7100000000000000000000000000000000000000000000000000000000600052602260045260246000fd5b60006002820490506001821680610e0557607f821691505b602082108103610e1857610e17610dbe565b5b50919050565b7f4e487b7100000000000000000000000000000000000000000000000000000000600052601160045260246000fd5b60008160011c9050919050565b6000808291508390505b6001851115610ea457808604811115610e8057610e7f610e1e565b5b6001851615610e8f5780820291505b8081029050610e9d85610e4d565b9450610e64565b94509492505050565b600082610ebd5760019050610f79565b81610ecb5760009050610f79565b8160018114610ee15760028114610eeb57610f1a565b6001915050610f79565b60ff841115610efd57610efc610e1e565b5b8360020a915084821115610f1457610f13610e1e565b5b50610f79565b5060208310610133831016604e8410600b8410161715610f4f5782820a905083811115610f4a57610f49610e1e565b5b610f79565b610f5c8484846001610e5a565b92509050818404811115610f7357610f72610e1e565b5b81810290505b9392505050565b6000610f8b82610bf1565b9150610f9683610d1a565b9250610fc37fffffffffffffffffffffffffffffffffffffffffffffffffffffffffffffffff8484610ead565b905092915050565b6000610fd682610bf1565b9150610fe183610bf1565b9250828202610fef81610bf1565b9150828204841483151761100657611005610e1e565b5b5092915050565b61101681610bb3565b82525050565b6000602082019050611031600083018461100d565b92915050565b600060608201905061104c600083018661100d565b6110596020830185610c9d565b6110666040830184610c9d565b949350505050565b600061107982610bf1565b915061108483610bf1565b925082820190508082111561109c5761109b610e1e565b5b9291505056fea264697066735822122017d005913b03092c57340e18e65634f583f439a9fda753d87b16ed7f94bd24e764736f6c63430008180033",
  "linkReferences": {},
  "deployedLinkReferences": {}
}