{
  "_format": "hh-sol-artifact-1",
  "contractName": "MockPyth",
  "sourceName": "contracts/mocks/MockPyth.sol",
  "abi": [
    {
      "inputs": [],
      "stateMutability": "nonpayable",
      "type": "constructor"
    },
    {
      "inputs": [
        {
          "internalType": "bytes32",
          "name": "priceFeedId",
          "type": "bytes32"
        }
      ],
      "name": "getPrice",
      "outputs": [
        {
          "components": [
            {
              "internalType": "int64",
              "name": "price",
              "type": "int64"
            },
            {
              "internalType": "uint64",
              "name": "conf",
              "type": "uint64"
            },
            {
              "internalType": "int32",
              "name": "expo",
              "type": "int32"
            },
            {
              "internalType": "uint256",
              "name": "publishTime",
              "type": "uint256"
            }
          ],
          "internalType": "struct MockPyth.Price",
          "name": "",
          "type": "tuple"
        }
      ],
      "stateMutability": "view",
      "type": "function"
    },
    {
      "inputs": [
        {
          "internalType": "bytes[]",
          "name": "pythUpdateData",
          "type": "bytes[]"
        }
      ],
      "name": "getUpdateFee",
      "outputs": [
        {
          "internalType": "uint256",
          "name": "",
          "type": "uint256"
        }
      ],
      "stateMutability": "view",
      "type": "function"
    },
    {
      "inputs": [],
      "name": "receivedAmount",
      "outputs": [
        {
          "internalType": "uint256",
          "name": "",
          "type": "uint256"
        }
      ],
      "stateMutability": "view",
      "type": "function"
    },
    {
      "inputs": [
        {
          "internalType": "bytes[]",
          "name": "_pythUpdateData",
          "type": "bytes[]"
        }
      ],
      "name": "updatePriceFeeds",
      "outputs": [],
      "stateMutability": "payable",
      "type": "function"
    }
  ],
  "bytecode": "0x60806040527f9d4294bbcd1174d6f2003ec365831e64cc31d9f6f15a2b85399db8d5000960f660001b60025534801561003757600080fd5b506402540be4006000819055506104fc806100536000396000f3fe60806040526004361061003f5760003560e01c806331d98b3f146100445780639632e72014610081578063d47eed45146100ac578063ef9e5e28146100e9575b600080fd5b34801561005057600080fd5b5061006b60048036038101906100669190610276565b610105565b604051610078919061036c565b60405180910390f35b34801561008d57600080fd5b506100966101cf565b6040516100a39190610396565b60405180910390f35b3480156100b857600080fd5b506100d360048036038101906100ce9190610416565b6101d5565b6040516100e09190610396565b60405180910390f35b61010360048036038101906100fe9190610416565b6101e1565b005b61010d6101fe565b60025482036101725760405180608001604052806298968060070b8152602001605a67ffffffffffffffff1681526020017ffffffffffffffffffffffffffffffffffffffffffffffffffffffffffffffffa60030b81526020014281525090506101ca565b6040518060800160405280620f424060070b8152602001605a67ffffffffffffffff1681526020017ffffffffffffffffffffffffffffffffffffffffffffffffffffffffffffffffa60030b81526020014281525090505b919050565b60015481565b60008054905092915050565b34600160008282546101f39190610492565b925050819055505050565b6040518060800160405280600060070b8152602001600067ffffffffffffffff168152602001600060030b8152602001600081525090565b600080fd5b600080fd5b6000819050919050565b61025381610240565b811461025e57600080fd5b50565b6000813590506102708161024a565b92915050565b60006020828403121561028c5761028b610236565b5b600061029a84828501610261565b91505092915050565b60008160070b9050919050565b6102b9816102a3565b82525050565b600067ffffffffffffffff82169050919050565b6102dc816102bf565b82525050565b60008160030b9050919050565b6102f8816102e2565b82525050565b6000819050919050565b610311816102fe565b82525050565b60808201600082015161032d60008501826102b0565b50602082015161034060208501826102d3565b50604082015161035360408501826102ef565b5060608201516103666060850182610308565b50505050565b60006080820190506103816000830184610317565b92915050565b610390816102fe565b82525050565b60006020820190506103ab6000830184610387565b92915050565b600080fd5b600080fd5b600080fd5b60008083601f8401126103d6576103d56103b1565b5b8235905067ffffffffffffffff8111156103f3576103f26103b6565b5b60208301915083602082028301111561040f5761040e6103bb565b5b9250929050565b6000806020838503121561042d5761042c610236565b5b600083013567ffffffffffffffff81111561044b5761044a61023b565b5b610457858286016103c0565b92509250509250929050565b7f4e487b7100000000000000000000000000000000000000000000000000000000600052601160045260246000fd5b600061049d826102fe565b91506104a8836102fe565b92508282019050808211156104c0576104bf610463565b5b9291505056fea26469706673582212201df001119084ef641507624f0c73cae9fd8bc4966512147432aeb2070b2b658664736f6c63430008180033",
  "linkReferences": {},
  "deployedLinkReferences": {}
}