{
  "_format": "hh-sol-artifact-1",
  "contractName": "OracleAMM",
  "sourceName": "contracts/OracleAMM.sol",
  "abi": [
    {
      "inputs": [
        {
          "internalType": "address",
          "name": "_pyth",
          "type": "address"
        },
        {
          "internalType": "bytes32",
          "name": "_baseTokenPriceId",
          "type": "bytes32"
        },
        {
          "internalType": "bytes32",
          "name": "_quoteTokenPriceId",
          "type": "bytes32"
        },
        {
          "internalType": "address",
          "name": "_baseToken",
          "type": "address"
        },
        {
          "internalType": "address",
          "name": "_quoteToken",
          "type": "address"
        }
      ],
      "stateMutability": "nonpayable",
      "type": "constructor"
    },
    {
      "inputs": [],
      "name": "ReentrancyGuardReentrantCall",
      "type": "error"
    },
    {
      "anonymous": false,
      "inputs": [
        {
          "indexed": false,
          "internalType": "address",
          "name": "from",
          "type": "address"
        },
        {
          "indexed": false,
          "internalType": "address",
          "name": "to",
          "type": "address"
        },
        {
          "indexed": false,
          "internalType": "uint256",
          "name": "amountUsd",
          "type": "uint256"
        },
        {
          "indexed": false,
          "internalType": "uint256",
          "name": "amountWei",
          "type": "uint256"
        }
      ],
      "name": "Transfer",
      "type": "event"
    },
    {
      "inputs": [
        {
          "internalType": "uint256",
          "name": "baseAmount",
          "type": "uint256"
        },
        {
          "internalType": "uint256",
          "name": "quoteAmount",
          "type": "uint256"
        },
        {
          "internalType": "bytes[]",
          "name": "pythUpdateData",
          "type": "bytes[]"
        }
      ],
      "name": "addLiquidity",
      "outputs": [],
      "stateMutability": "nonpayable",
      "type": "function"
    },
    {
      "inputs": [],
      "name": "baseBalance",
      "outputs": [
        {
          "internalType": "uint256",
          "name": "",
          "type": "uint256"
        }
      ],
      "stateMutability": "view",
      "type": "function"
    },
    {
      "inputs": [],
      "name": "baseFeesAccrued",
      "outputs": [
        {
          "internalType": "uint256",
          "name": "",
          "type": "uint256"
        }
      ],
      "stateMutability": "view",
      "type": "function"
    },
    {
      "inputs": [
        {
          "internalType": "address",
          "name": "",
          "type": "address"
        }
      ],
      "name": "baseLiquidityProvided",
      "outputs": [
        {
          "internalType": "uint256",
          "name": "",
          "type": "uint256"
        }
      ],
      "stateMutability": "view",
      "type": "function"
    },
    {
      "inputs": [],
      "name": "baseToken",
      "outputs": [
        {
          "internalType": "contract ERC20",
          "name": "",
          "type": "address"
        }
      ],
      "stateMutability": "view",
      "type": "function"
    },
    {
      "inputs": [],
      "name": "baseTokenDecimals",
      "outputs": [
        {
          "internalType": "uint256",
          "name": "",
          "type": "uint256"
        }
      ],
      "stateMutability": "view",
      "type": "function"
    },
    {
      "inputs": [],
      "name": "feePercentage",
      "outputs": [
        {
          "internalType": "uint256",
          "name": "",
          "type": "uint256"
        }
      ],
      "stateMutability": "view",
      "type": "function"
    },
    {
      "inputs": [],
      "name": "quoteBalance",
      "outputs": [
        {
          "internalType": "uint256",
          "name": "",
          "type": "uint256"
        }
      ],
      "stateMutability": "view",
      "type": "function"
    },
    {
      "inputs": [],
      "name": "quoteFeesAccrued",
      "outputs": [
        {
          "internalType": "uint256",
          "name": "",
          "type": "uint256"
        }
      ],
      "stateMutability": "view",
      "type": "function"
    },
    {
      "inputs": [
        {
          "internalType": "address",
          "name": "",
          "type": "address"
        }
      ],
      "name": "quoteLiquidityProvided",
      "outputs": [
        {
          "internalType": "uint256",
          "name": "",
          "type": "uint256"
        }
      ],
      "stateMutability": "view",
      "type": "function"
    },
    {
      "inputs": [],
      "name": "quoteToken",
      "outputs": [
        {
          "internalType": "contract ERC20",
          "name": "",
          "type": "address"
        }
      ],
      "stateMutability": "view",
      "type": "function"
    },
    {
      "inputs": [],
      "name": "quoteTokenDecimals",
      "outputs": [
        {
          "internalType": "uint256",
          "name": "",
          "type": "uint256"
        }
      ],
      "stateMutability": "view",
      "type": "function"
    },
    {
      "inputs": [
        {
          "internalType": "bytes32",
          "name": "_baseTokenPriceId",
          "type": "bytes32"
        },
        {
          "internalType": "bytes32",
          "name": "_quoteTokenPriceId",
          "type": "bytes32"
        },
        {
          "internalType": "address",
          "name": "_baseToken",
          "type": "address"
        },
        {
          "internalType": "address",
          "name": "_quoteToken",
          "type": "address"
        }
      ],
      "name": "reinitialize",
      "outputs": [],
      "stateMutability": "nonpayable",
      "type": "function"
    },
    {
      "inputs": [
        {
          "internalType": "uint256",
          "name": "baseAmount",
          "type": "uint256"
        },
        {
          "internalType": "bytes[]",
          "name": "pythUpdateData",
          "type": "bytes[]"
        }
      ],
      "name": "removeLiquidity",
      "outputs": [],
      "stateMutability": "nonpayable",
      "type": "function"
    },
    {
      "inputs": [
        {
          "internalType": "bool",
          "name": "isBuy",
          "type": "bool"
        },
        {
          "internalType": "uint256",
          "name": "size",
          "type": "uint256"
        },
        {
          "internalType": "bytes[]",
          "name": "pythUpdateData",
          "type": "bytes[]"
        }
      ],
      "name": "swap",
      "outputs": [],
      "stateMutability": "payable",
      "type": "function"
    },
    {
      "inputs": [],
      "name": "totalBaseLiquidity",
      "outputs": [
        {
          "internalType": "uint256",
          "name": "",
          "type": "uint256"
        }
      ],
      "stateMutability": "view",
      "type": "function"
    },
    {
      "inputs": [],
      "name": "totalQuoteLiquidity",
      "outputs": [
        {
          "internalType": "uint256",
          "name": "",
          "type": "uint256"
        }
      ],
      "stateMutability": "view",
      "type": "function"
    },
    {
      "inputs": [],
      "name": "withdrawAll",
      "outputs": [],
      "stateMutability": "nonpayable",
      "type": "function"
    },
    {
      "stateMutability": "payable",
      "type": "receive"
    }
  ],
  "bytecode": "0x60806040523480156200001157600080fd5b5060405162003865380380620038658339818101604052810190620000379190620002fa565b600160008190555084600160006101000a81548173ffffffffffffffffffffffffffffffffffffffff021916908373ffffffffffffffffffffffffffffffffffffffff160217905550836002819055508260038190555081600460006101000a81548173ffffffffffffffffffffffffffffffffffffffff021916908373ffffffffffffffffffffffffffffffffffffffff16021790555080600560006101000a81548173ffffffffffffffffffffffffffffffffffffffff021916908373ffffffffffffffffffffffffffffffffffffffff160217905550600460009054906101000a900473ffffffffffffffffffffffffffffffffffffffff1673ffffffffffffffffffffffffffffffffffffffff1663313ce5676040518163ffffffff1660e01b8152600401602060405180830381865afa1580156200017e573d6000803e3d6000fd5b505050506040513d601f19601f82011682018060405250810190620001a49190620003c0565b60ff16600a81905550600560009054906101000a900473ffffffffffffffffffffffffffffffffffffffff1673ffffffffffffffffffffffffffffffffffffffff1663313ce5676040518163ffffffff1660e01b8152600401602060405180830381865afa1580156200021b573d6000803e3d6000fd5b505050506040513d601f19601f82011682018060405250810190620002419190620003c0565b60ff16600b819055505050505050620003f2565b600080fd5b600073ffffffffffffffffffffffffffffffffffffffff82169050919050565b600062000287826200025a565b9050919050565b62000299816200027a565b8114620002a557600080fd5b50565b600081519050620002b9816200028e565b92915050565b6000819050919050565b620002d481620002bf565b8114620002e057600080fd5b50565b600081519050620002f481620002c9565b92915050565b600080600080600060a0868803121562000319576200031862000255565b5b60006200032988828901620002a8565b95505060206200033c88828901620002e3565b94505060406200034f88828901620002e3565b93505060606200036288828901620002a8565b92505060806200037588828901620002a8565b9150509295509295909350565b600060ff82169050919050565b6200039a8162000382565b8114620003a657600080fd5b50565b600081519050620003ba816200038f565b92915050565b600060208284031215620003d957620003d862000255565b5b6000620003e984828501620003a9565b91505092915050565b61346380620004026000396000f3fe60806040526004361061010d5760003560e01c80639a76f77211610095578063c55dae6311610064578063c55dae6314610342578063d8890f9e1461036d578063f1a2e84914610396578063f30f3ac6146103c1578063f338f2bf146103fe57610114565b80639a76f77214610298578063a001ecdd146102c1578063a1575164146102ec578063aaeb02541461031757610114565b806340387105116100dc57806340387105146101c357806361c25590146101ee578063814d06341461021957806382aa1c8814610256578063853828b61461028157610114565b80631c8daf4e14610119578063217a4b701461014257806327624b071461016d57806338bde7911461019857610114565b3661011457005b600080fd5b34801561012557600080fd5b50610140600480360381019061013b91906124d8565b61041a565b005b34801561014e57600080fd5b50610157610d26565b60405161016491906125b7565b60405180910390f35b34801561017957600080fd5b50610182610d4c565b60405161018f91906125e1565b60405180910390f35b3480156101a457600080fd5b506101ad610d52565b6040516101ba91906125e1565b60405180910390f35b3480156101cf57600080fd5b506101d8610df5565b6040516101e591906125e1565b60405180910390f35b3480156101fa57600080fd5b50610203610dfb565b60405161021091906125e1565b60405180910390f35b34801561022557600080fd5b50610240600480360381019061023b919061263a565b610e01565b60405161024d91906125e1565b60405180910390f35b34801561026257600080fd5b5061026b610e19565b60405161027891906125e1565b60405180910390f35b34801561028d57600080fd5b50610296610e1f565b005b3480156102a457600080fd5b506102bf60048036038101906102ba9190612667565b611099565b005b3480156102cd57600080fd5b506102d661178c565b6040516102e391906125e1565b60405180910390f35b3480156102f857600080fd5b50610301611791565b60405161030e91906125e1565b60405180910390f35b34801561032357600080fd5b5061032c611797565b60405161033991906125e1565b60405180910390f35b34801561034e57600080fd5b5061035761179d565b60405161036491906125b7565b60405180910390f35b34801561037957600080fd5b50610394600480360381019061038f9190612711565b6117c3565b005b3480156103a257600080fd5b506103ab611859565b6040516103b891906125e1565b60405180910390f35b3480156103cd57600080fd5b506103e860048036038101906103e3919061263a565b6118fc565b6040516103f591906125e1565b60405180910390f35b610418600480360381019061041391906127b0565b611914565b005b6104226122dc565b82600c60003373ffffffffffffffffffffffffffffffffffffffff1673ffffffffffffffffffffffffffffffffffffffff1681526020019081526020016000205410156104a4576040517f08c379a000000000000000000000000000000000000000000000000000000000815260040161049b906128a7565b60405180910390fd5b6000600160009054906101000a900473ffffffffffffffffffffffffffffffffffffffff1673ffffffffffffffffffffffffffffffffffffffff1663d47eed4584846040518363ffffffff1660e01b8152600401610503929190612a4b565b602060405180830381865afa158015610520573d6000803e3d6000fd5b505050506040513d601f19601f820116820180604052508101906105449190612a84565b9050600160009054906101000a900473ffffffffffffffffffffffffffffffffffffffff1673ffffffffffffffffffffffffffffffffffffffff1663ef9e5e288285856040518463ffffffff1660e01b81526004016105a4929190612a4b565b6000604051808303818588803b1580156105bd57600080fd5b505af11580156105d1573d6000803e3d6000fd5b50505050506000600160009054906101000a900473ffffffffffffffffffffffffffffffffffffffff1673ffffffffffffffffffffffffffffffffffffffff166331d98b3f6002546040518263ffffffff1660e01b81526004016106359190612ac0565b608060405180830381865afa158015610652573d6000803e3d6000fd5b505050506040513d601f19601f820116820180604052508101906106769190612c85565b90506000600160009054906101000a900473ffffffffffffffffffffffffffffffffffffffff1673ffffffffffffffffffffffffffffffffffffffff166331d98b3f6003546040518263ffffffff1660e01b81526004016106d79190612ac0565b608060405180830381865afa1580156106f4573d6000803e3d6000fd5b505050506040513d601f19601f820116820180604052508101906107189190612c85565b90506000610730836000015184604001516012612322565b90506000610748836000015184604001516012612322565b9050600081838a6107599190612ce1565b6107639190612d52565b90506000600b54600a546107779190612d83565b600a6107839190612eea565b8261078e9190612d52565b905080600d60003373ffffffffffffffffffffffffffffffffffffffff1673ffffffffffffffffffffffffffffffffffffffff168152602001908152602001600020541015610812576040517f08c379a000000000000000000000000000000000000000000000000000000000815260040161080990612fa7565b60405180910390fd5b6000600654600c60003373ffffffffffffffffffffffffffffffffffffffff1673ffffffffffffffffffffffffffffffffffffffff168152602001908152602001600020546008546108649190612ce1565b61086e9190612d52565b90506000600754600d60003373ffffffffffffffffffffffffffffffffffffffff1673ffffffffffffffffffffffffffffffffffffffff168152602001908152602001600020546009546108c29190612ce1565b6108cc9190612d52565b905081600860008282546108e09190612d83565b9250508190555080600960008282546108f99190612d83565b925050819055506000600c60003373ffffffffffffffffffffffffffffffffffffffff1673ffffffffffffffffffffffffffffffffffffffff16815260200190815260200160002054146109f4578b600c60003373ffffffffffffffffffffffffffffffffffffffff1673ffffffffffffffffffffffffffffffffffffffff16815260200190815260200160002060008282546109969190612d83565b9250508190555082600d60003373ffffffffffffffffffffffffffffffffffffffff1673ffffffffffffffffffffffffffffffffffffffff16815260200190815260200160002060008282546109ec9190612d83565b925050819055505b8b60066000828254610a069190612d83565b925050819055508260076000828254610a1f9190612d83565b925050819055506000828d610a349190612fc7565b905060008285610a449190612fc7565b9050610a4e610d52565b8210610a8f576040517f08c379a0000000000000000000000000000000000000000000000000000000008152600401610a8690613047565b60405180910390fd5b610a97611859565b8110610ad8576040517f08c379a0000000000000000000000000000000000000000000000000000000008152600401610acf906130d9565b60405180910390fd5b600460009054906101000a900473ffffffffffffffffffffffffffffffffffffffff1673ffffffffffffffffffffffffffffffffffffffff1663a9059cbb33846040518363ffffffff1660e01b8152600401610b35929190613108565b6020604051808303816000875af1158015610b54573d6000803e3d6000fd5b505050506040513d601f19601f82011682018060405250810190610b789190613146565b506000600a54600a610b8a9190612eea565b83610b959190612d52565b905060006012600a610ba79190613180565b82610bb29190612ce1565b90507f9ed053bb818ff08b8353cd46f78db1f0799f31c9e4458fdb425c10eccd2efc4430338484604051610be994939291906131cb565b60405180910390a1600560009054906101000a900473ffffffffffffffffffffffffffffffffffffffff1673ffffffffffffffffffffffffffffffffffffffff1663a9059cbb33856040518363ffffffff1660e01b8152600401610c4e929190613108565b6020604051808303816000875af1158015610c6d573d6000803e3d6000fd5b505050506040513d601f19601f82011682018060405250810190610c919190613146565b506000600b54600a610ca39190612eea565b84610cae9190612d52565b905060006012600a610cc09190613180565b82610ccb9190612ce1565b90507f9ed053bb818ff08b8353cd46f78db1f0799f31c9e4458fdb425c10eccd2efc4430338484604051610d0294939291906131cb565b60405180910390a1505050505050505050505050505050610d2161241f565b505050565b600560009054906101000a900473ffffffffffffffffffffffffffffffffffffffff1681565b600b5481565b6000600460009054906101000a900473ffffffffffffffffffffffffffffffffffffffff1673ffffffffffffffffffffffffffffffffffffffff166370a08231306040518263ffffffff1660e01b8152600401610daf9190613210565b602060405180830381865afa158015610dcc573d6000803e3d6000fd5b505050506040513d601f19601f82011682018060405250810190610df09190612a84565b905090565b60095481565b60085481565b600c6020528060005260406000206000915090505481565b600a5481565b600460009054906101000a900473ffffffffffffffffffffffffffffffffffffffff1673ffffffffffffffffffffffffffffffffffffffff1663a9059cbb33600460009054906101000a900473ffffffffffffffffffffffffffffffffffffffff1673ffffffffffffffffffffffffffffffffffffffff166370a08231306040518263ffffffff1660e01b8152600401610eb99190613210565b602060405180830381865afa158015610ed6573d6000803e3d6000fd5b505050506040513d601f19601f82011682018060405250810190610efa9190612a84565b6040518363ffffffff1660e01b8152600401610f17929190613108565b6020604051808303816000875af1158015610f36573d6000803e3d6000fd5b505050506040513d601f19601f82011682018060405250810190610f5a9190613146565b50600560009054906101000a900473ffffffffffffffffffffffffffffffffffffffff1673ffffffffffffffffffffffffffffffffffffffff1663a9059cbb33600560009054906101000a900473ffffffffffffffffffffffffffffffffffffffff1673ffffffffffffffffffffffffffffffffffffffff166370a08231306040518263ffffffff1660e01b8152600401610ff59190613210565b602060405180830381865afa158015611012573d6000803e3d6000fd5b505050506040513d601f19601f820116820180604052508101906110369190612a84565b6040518363ffffffff1660e01b8152600401611053929190613108565b6020604051808303816000875af1158015611072573d6000803e3d6000fd5b505050506040513d601f19601f820116820180604052508101906110969190613146565b50565b6110a16122dc565b6000841180156110b15750600083115b6110f0576040517f08c379a00000000000000000000000000000000000000000000000000000000081526004016110e79061329d565b60405180910390fd5b6000600160009054906101000a900473ffffffffffffffffffffffffffffffffffffffff1673ffffffffffffffffffffffffffffffffffffffff1663d47eed4584846040518363ffffffff1660e01b815260040161114f929190612a4b565b602060405180830381865afa15801561116c573d6000803e3d6000fd5b505050506040513d601f19601f820116820180604052508101906111909190612a84565b9050600160009054906101000a900473ffffffffffffffffffffffffffffffffffffffff1673ffffffffffffffffffffffffffffffffffffffff1663ef9e5e288285856040518463ffffffff1660e01b81526004016111f0929190612a4b565b6000604051808303818588803b15801561120957600080fd5b505af115801561121d573d6000803e3d6000fd5b50505050506000600160009054906101000a900473ffffffffffffffffffffffffffffffffffffffff1673ffffffffffffffffffffffffffffffffffffffff166331d98b3f6002546040518263ffffffff1660e01b81526004016112819190612ac0565b608060405180830381865afa15801561129e573d6000803e3d6000fd5b505050506040513d601f19601f820116820180604052508101906112c29190612c85565b905060006112da826000015183604001516012612322565b9050600160009054906101000a900473ffffffffffffffffffffffffffffffffffffffff1673ffffffffffffffffffffffffffffffffffffffff166331d98b3f6003546040518263ffffffff1660e01b81526004016113399190612ac0565b608060405180830381865afa158015611356573d6000803e3d6000fd5b505050506040513d601f19601f8201168201806040525081019061137a9190612c85565b91506000611392836000015184604001516012612322565b9050600081838a6113a39190612ce1565b6113ad9190612d52565b90506000889050600b54600a5411156113ea57600b54600a546113d09190612d83565b600a6113dc9190612eea565b816113e79190612ce1565b90505b81811461142c576040517f08c379a000000000000000000000000000000000000000000000000000000000815260040161142390613309565b60405180910390fd5b600460009054906101000a900473ffffffffffffffffffffffffffffffffffffffff1673ffffffffffffffffffffffffffffffffffffffff166323b872dd33308d6040518463ffffffff1660e01b815260040161148b93929190613329565b6020604051808303816000875af11580156114aa573d6000803e3d6000fd5b505050506040513d601f19601f820116820180604052508101906114ce9190613146565b506000600a54601260ff166114e39190612fc7565b600a6114ef9190612eea565b858c6114fb9190612ce1565b6115059190612d52565b905060006012600a6115179190613180565b826115229190612ce1565b90507f9ed053bb818ff08b8353cd46f78db1f0799f31c9e4458fdb425c10eccd2efc443330848460405161155994939291906131cb565b60405180910390a1600560009054906101000a900473ffffffffffffffffffffffffffffffffffffffff1673ffffffffffffffffffffffffffffffffffffffff166323b872dd33308e6040518463ffffffff1660e01b81526004016115c093929190613329565b6020604051808303816000875af11580156115df573d6000803e3d6000fd5b505050506040513d601f19601f820116820180604052508101906116039190613146565b506000600b54601260ff166116189190612fc7565b600a6116249190612eea565b86856116309190612ce1565b61163a9190612d52565b905060006012600a61164c9190613180565b826116579190612ce1565b90507f9ed053bb818ff08b8353cd46f78db1f0799f31c9e4458fdb425c10eccd2efc443033848460405161168e94939291906131cb565b60405180910390a18d600c60003373ffffffffffffffffffffffffffffffffffffffff1673ffffffffffffffffffffffffffffffffffffffff16815260200190815260200160002060008282546116e59190612fc7565b925050819055508c600d60003373ffffffffffffffffffffffffffffffffffffffff1673ffffffffffffffffffffffffffffffffffffffff168152602001908152602001600020600082825461173b9190612fc7565b925050819055508d600660008282546117549190612fc7565b925050819055508c6007600082825461176d9190612fc7565b925050819055505050505050505050505061178661241f565b50505050565b606481565b60075481565b60065481565b600460009054906101000a900473ffffffffffffffffffffffffffffffffffffffff1681565b836002819055508260038190555081600460006101000a81548173ffffffffffffffffffffffffffffffffffffffff021916908373ffffffffffffffffffffffffffffffffffffffff16021790555080600560006101000a81548173ffffffffffffffffffffffffffffffffffffffff021916908373ffffffffffffffffffffffffffffffffffffffff16021790555050505050565b6000600560009054906101000a900473ffffffffffffffffffffffffffffffffffffffff1673ffffffffffffffffffffffffffffffffffffffff166370a08231306040518263ffffffff1660e01b81526004016118b69190613210565b602060405180830381865afa1580156118d3573d6000803e3d6000fd5b505050506040513d601f19601f820116820180604052508101906118f79190612a84565b905090565b600d6020528060005260406000206000915090505481565b6000600160009054906101000a900473ffffffffffffffffffffffffffffffffffffffff1673ffffffffffffffffffffffffffffffffffffffff1663d47eed4584846040518363ffffffff1660e01b8152600401611973929190612a4b565b602060405180830381865afa158015611990573d6000803e3d6000fd5b505050506040513d601f19601f820116820180604052508101906119b49190612a84565b9050600160009054906101000a900473ffffffffffffffffffffffffffffffffffffffff1673ffffffffffffffffffffffffffffffffffffffff1663ef9e5e288285856040518463ffffffff1660e01b8152600401611a14929190612a4b565b6000604051808303818588803b158015611a2d57600080fd5b505af1158015611a41573d6000803e3d6000fd5b50505050506000600160009054906101000a900473ffffffffffffffffffffffffffffffffffffffff1673ffffffffffffffffffffffffffffffffffffffff166331d98b3f6002546040518263ffffffff1660e01b8152600401611aa59190612ac0565b608060405180830381865afa158015611ac2573d6000803e3d6000fd5b505050506040513d601f19601f82011682018060405250810190611ae69190612c85565b90506000600160009054906101000a900473ffffffffffffffffffffffffffffffffffffffff1673ffffffffffffffffffffffffffffffffffffffff166331d98b3f6003546040518263ffffffff1660e01b8152600401611b479190612ac0565b608060405180830381865afa158015611b64573d6000803e3d6000fd5b505050506040513d601f19601f82011682018060405250810190611b889190612c85565b90506000611ba0836000015184604001516012612322565b90506000611bb8836000015184604001516012612322565b9050600081838a611bc99190612ce1565b611bd39190612d52565b90508915611f4b57600181611be89190612fc7565b9050600061271060648b611bfc9190612ce1565b611c069190612d52565b90506000818b611c169190612d83565b90508160086000828254611c2a9190612fc7565b92505081905550611c39610d52565b8110611c7a576040517f08c379a0000000000000000000000000000000000000000000000000000000008152600401611c7190613047565b60405180910390fd5b6000600b54600a54611c8c9190612d83565b600a611c989190612eea565b84611ca39190612d52565b9050600560009054906101000a900473ffffffffffffffffffffffffffffffffffffffff1673ffffffffffffffffffffffffffffffffffffffff166323b872dd3330846040518463ffffffff1660e01b8152600401611d0493929190613329565b6020604051808303816000875af1158015611d23573d6000803e3d6000fd5b505050506040513d601f19601f82011682018060405250810190611d479190613146565b506000600b54601260ff16611d5c9190612fc7565b600a611d689190612eea565b8287611d749190612ce1565b611d7e9190612d52565b905060006012600a611d909190613180565b82611d9b9190612ce1565b90507f9ed053bb818ff08b8353cd46f78db1f0799f31c9e4458fdb425c10eccd2efc4433308484604051611dd294939291906131cb565b60405180910390a1600460009054906101000a900473ffffffffffffffffffffffffffffffffffffffff1673ffffffffffffffffffffffffffffffffffffffff1663a9059cbb33866040518363ffffffff1660e01b8152600401611e37929190613108565b6020604051808303816000875af1158015611e56573d6000803e3d6000fd5b505050506040513d601f19601f82011682018060405250810190611e7a9190613146565b506000600a54601260ff16611e8f9190612fc7565b600a611e9b9190612eea565b8986611ea79190612ce1565b611eb19190612d52565b905060006012600a611ec39190613180565b82611ece9190612ce1565b90507f9ed053bb818ff08b8353cd46f78db1f0799f31c9e4458fdb425c10eccd2efc4430338484604051611f0594939291906131cb565b60405180910390a18560066000828254611f1f9190612d83565b925050819055508460076000828254611f389190612fc7565b92505081905550505050505050506122d0565b6000612710606483611f5d9190612ce1565b611f679190612d52565b905060008183611f779190612d83565b9050600b54600a54611f899190612d83565b600a611f959190612eea565b82611fa09190612d52565b60096000828254611fb19190612fc7565b925050819055506000600b54600a54611fca9190612d83565b600a611fd69190612eea565b82611fe19190612d52565b9050611feb611859565b811061202c576040517f08c379a0000000000000000000000000000000000000000000000000000000008152600401612023906130d9565b60405180910390fd5b600460009054906101000a900473ffffffffffffffffffffffffffffffffffffffff1673ffffffffffffffffffffffffffffffffffffffff166323b872dd33308f6040518463ffffffff1660e01b815260040161208b93929190613329565b6020604051808303816000875af11580156120aa573d6000803e3d6000fd5b505050506040513d601f19601f820116820180604052508101906120ce9190613146565b506000600a54601260ff166120e39190612fc7565b600a6120ef9190612eea565b878e6120fb9190612ce1565b6121059190612d52565b905060006012600a6121179190613180565b826121229190612ce1565b90507f9ed053bb818ff08b8353cd46f78db1f0799f31c9e4458fdb425c10eccd2efc443330600a548460405161215b94939291906131cb565b60405180910390a1600560009054906101000a900473ffffffffffffffffffffffffffffffffffffffff1673ffffffffffffffffffffffffffffffffffffffff1663a9059cbb33856040518363ffffffff1660e01b81526004016121c0929190613108565b6020604051808303816000875af11580156121df573d6000803e3d6000fd5b505050506040513d601f19601f820116820180604052508101906122039190613146565b506000600b54601260ff166122189190612fc7565b600a6122249190612eea565b88856122309190612ce1565b61223a9190612d52565b905060006012600a61224c9190613180565b826122579190612ce1565b90507f9ed053bb818ff08b8353cd46f78db1f0799f31c9e4458fdb425c10eccd2efc443033848460405161228e94939291906131cb565b60405180910390a18f600660008282546122a89190612fc7565b9250508190555084600760008282546122c19190612d83565b92505081905550505050505050505b50505050505050505050565b600260005403612318576040517f3ee5aeb500000000000000000000000000000000000000000000000000000000815260040160405180910390fd5b6002600081905550565b6000808460070b1280612338575060008360030b135b8061236557507fffffffffffffffffffffffffffffffffffffffffffffffffffffffffffffff018360030b125b1561236f57600080fd5b6000837fffffffffffffffffffffffffffffffffffffffffffffffffffffffffffffffff61239d9190613360565b90508060ff168360ff16106123e45780836123b8919061339d565b60ff16600a6123c791906133e2565b8567ffffffffffffffff166123dc9190612ce1565b915050612418565b82816123f0919061339d565b60ff16600a6123ff91906133e2565b8567ffffffffffffffff166124149190612d52565b9150505b9392505050565b6001600081905550565b6000604051905090565b600080fd5b600080fd5b6000819050919050565b6124508161243d565b811461245b57600080fd5b50565b60008135905061246d81612447565b92915050565b600080fd5b600080fd5b600080fd5b60008083601f84011261249857612497612473565b5b8235905067ffffffffffffffff8111156124b5576124b4612478565b5b6020830191508360208202830111156124d1576124d061247d565b5b9250929050565b6000806000604084860312156124f1576124f0612433565b5b60006124ff8682870161245e565b935050602084013567ffffffffffffffff8111156125205761251f612438565b5b61252c86828701612482565b92509250509250925092565b600073ffffffffffffffffffffffffffffffffffffffff82169050919050565b6000819050919050565b600061257d61257861257384612538565b612558565b612538565b9050919050565b600061258f82612562565b9050919050565b60006125a182612584565b9050919050565b6125b181612596565b82525050565b60006020820190506125cc60008301846125a8565b92915050565b6125db8161243d565b82525050565b60006020820190506125f660008301846125d2565b92915050565b600061260782612538565b9050919050565b612617816125fc565b811461262257600080fd5b50565b6000813590506126348161260e565b92915050565b6000602082840312156126505761264f612433565b5b600061265e84828501612625565b91505092915050565b6000806000806060858703121561268157612680612433565b5b600061268f8782880161245e565b94505060206126a08782880161245e565b935050604085013567ffffffffffffffff8111156126c1576126c0612438565b5b6126cd87828801612482565b925092505092959194509250565b6000819050919050565b6126ee816126db565b81146126f957600080fd5b50565b60008135905061270b816126e5565b92915050565b6000806000806080858703121561272b5761272a612433565b5b6000612739878288016126fc565b945050602061274a878288016126fc565b935050604061275b87828801612625565b925050606061276c87828801612625565b91505092959194509250565b60008115159050919050565b61278d81612778565b811461279857600080fd5b50565b6000813590506127aa81612784565b92915050565b600080600080606085870312156127ca576127c9612433565b5b60006127d88782880161279b565b94505060206127e98782880161245e565b935050604085013567ffffffffffffffff81111561280a57612809612438565b5b61281687828801612482565b925092505092959194509250565b600082825260208201905092915050565b7f4e6f7420656e6f7567682075736572206261736520746f6b656e206c6971756960008201527f6469747900000000000000000000000000000000000000000000000000000000602082015250565b6000612891602483612824565b915061289c82612835565b604082019050919050565b600060208201905081810360008301526128c081612884565b9050919050565b600082825260208201905092915050565b6000819050919050565b600082825260208201905092915050565b82818337600083830152505050565b6000601f19601f8301169050919050565b600061291f83856128e2565b935061292c8385846128f3565b61293583612902565b840190509392505050565b600061294d848484612913565b90509392505050565b600080fd5b600080fd5b600080fd5b6000808335600160200384360303811261298257612981612960565b5b83810192508235915060208301925067ffffffffffffffff8211156129aa576129a9612956565b5b6001820236038313156129c0576129bf61295b565b5b509250929050565b6000602082019050919050565b60006129e183856128c7565b9350836020840285016129f3846128d8565b8060005b87811015612a39578484038952612a0e8284612965565b612a19868284612940565b9550612a24846129c8565b935060208b019a5050506001810190506129f7565b50829750879450505050509392505050565b60006020820190508181036000830152612a668184866129d5565b90509392505050565b600081519050612a7e81612447565b92915050565b600060208284031215612a9a57612a99612433565b5b6000612aa884828501612a6f565b91505092915050565b612aba816126db565b82525050565b6000602082019050612ad56000830184612ab1565b92915050565b600080fd5b7f4e487b7100000000000000000000000000000000000000000000000000000000600052604160045260246000fd5b612b1882612902565b810181811067ffffffffffffffff82111715612b3757612b36612ae0565b5b80604052505050565b6000612b4a612429565b9050612b568282612b0f565b919050565b60008160070b9050919050565b612b7181612b5b565b8114612b7c57600080fd5b50565b600081519050612b8e81612b68565b92915050565b600067ffffffffffffffff82169050919050565b612bb181612b94565b8114612bbc57600080fd5b50565b600081519050612bce81612ba8565b92915050565b60008160030b9050919050565b612bea81612bd4565b8114612bf557600080fd5b50565b600081519050612c0781612be1565b92915050565b600060808284031215612c2357612c22612adb565b5b612c2d6080612b40565b90506000612c3d84828501612b7f565b6000830152506020612c5184828501612bbf565b6020830152506040612c6584828501612bf8565b6040830152506060612c7984828501612a6f565b60608301525092915050565b600060808284031215612c9b57612c9a612433565b5b6000612ca984828501612c0d565b91505092915050565b7f4e487b7100000000000000000000000000000000000000000000000000000000600052601160045260246000fd5b6000612cec8261243d565b9150612cf78361243d565b9250828202612d058161243d565b91508282048414831517612d1c57612d1b612cb2565b5b5092915050565b7f4e487b7100000000000000000000000000000000000000000000000000000000600052601260045260246000fd5b6000612d5d8261243d565b9150612d688361243d565b925082612d7857612d77612d23565b5b828204905092915050565b6000612d8e8261243d565b9150612d998361243d565b9250828203905081811115612db157612db0612cb2565b5b92915050565b60008160011c9050919050565b6000808291508390505b6001851115612e0e57808604811115612dea57612de9612cb2565b5b6001851615612df95780820291505b8081029050612e0785612db7565b9450612dce565b94509492505050565b600082612e275760019050612ee3565b81612e355760009050612ee3565b8160018114612e4b5760028114612e5557612e84565b6001915050612ee3565b60ff841115612e6757612e66612cb2565b5b8360020a915084821115612e7e57612e7d612cb2565b5b50612ee3565b5060208310610133831016604e8410600b8410161715612eb95782820a905083811115612eb457612eb3612cb2565b5b612ee3565b612ec68484846001612dc4565b92509050818404811115612edd57612edc612cb2565b5b81810290505b9392505050565b6000612ef58261243d565b9150612f008361243d565b9250612f2d7fffffffffffffffffffffffffffffffffffffffffffffffffffffffffffffffff8484612e17565b905092915050565b7f4e6f7420656e6f75676820757365722071756f746520746f6b656e206c69717560008201527f6964697479000000000000000000000000000000000000000000000000000000602082015250565b6000612f91602583612824565b9150612f9c82612f35565b604082019050919050565b60006020820190508181036000830152612fc081612f84565b9050919050565b6000612fd28261243d565b9150612fdd8361243d565b9250828201905080821115612ff557612ff4612cb2565b5b92915050565b7f4e6f7420656e6f756768206261736520746f6b656e73206c6971756964697479600082015250565b6000613031602083612824565b915061303c82612ffb565b602082019050919050565b6000602082019050818103600083015261306081613024565b9050919050565b7f4e6f7420656e6f7567682071756f746520746f6b656e73206c6971756964697460008201527f7900000000000000000000000000000000000000000000000000000000000000602082015250565b60006130c3602183612824565b91506130ce82613067565b604082019050919050565b600060208201905081810360008301526130f2816130b6565b9050919050565b613102816125fc565b82525050565b600060408201905061311d60008301856130f9565b61312a60208301846125d2565b9392505050565b60008151905061314081612784565b92915050565b60006020828403121561315c5761315b612433565b5b600061316a84828501613131565b91505092915050565b600060ff82169050919050565b600061318b8261243d565b915061319683613173565b92506131c37fffffffffffffffffffffffffffffffffffffffffffffffffffffffffffffffff8484612e17565b905092915050565b60006080820190506131e060008301876130f9565b6131ed60208301866130f9565b6131fa60408301856125d2565b61320760608301846125d2565b95945050505050565b600060208201905061322560008301846130f9565b92915050565b7f746f6b656e20616d6f756e7473206d757374206265206772656174657220746860008201527f616e207a65726f00000000000000000000000000000000000000000000000000602082015250565b6000613287602783612824565b91506132928261322b565b604082019050919050565b600060208201905081810360008301526132b68161327a565b9050919050565b7f556e62616c616e63656420616d6f756e74732070726f76696465640000000000600082015250565b60006132f3601b83612824565b91506132fe826132bd565b602082019050919050565b60006020820190508181036000830152613322816132e6565b9050919050565b600060608201905061333e60008301866130f9565b61334b60208301856130f9565b61335860408301846125d2565b949350505050565b600061336b82612bd4565b915061337683612bd4565b925082820261338481612bd4565b915080821461339657613395612cb2565b5b5092915050565b60006133a882613173565b91506133b383613173565b9250828203905060ff8111156133cc576133cb612cb2565b5b92915050565b600063ffffffff82169050919050565b60006133ed8261243d565b91506133f8836133d2565b92506134257fffffffffffffffffffffffffffffffffffffffffffffffffffffffffffffffff8484612e17565b90509291505056fea2646970667358221220eba0460364af4432ff4dced01577cd46aff2090de3efa23be7c10db7307ddb8c64736f6c63430008180033",
  "linkReferences": {},
  "deployedLinkReferences": {}
}